{
  "contractName": "Simplestorage",
  "abi": [
    {
      "constant": false,
      "inputs": [
        {
          "internalType": "uint256",
          "name": "x",
          "type": "uint256"
        }
      ],
      "name": "set",
      "outputs": [],
      "payable": false,
      "stateMutability": "nonpayable",
      "type": "function"
    },
    {
      "constant": true,
      "inputs": [],
      "name": "get",
      "outputs": [
        {
          "internalType": "uint256",
          "name": "",
          "type": "uint256"
        }
      ],
      "payable": false,
      "stateMutability": "view",
      "type": "function"
    },
    {
      "constant": false,
      "inputs": [
        {
          "internalType": "uint256",
          "name": "n",
          "type": "uint256"
        }
      ],
      "name": "increment",
      "outputs": [],
      "payable": false,
      "stateMutability": "nonpayable",
      "type": "function"
    },
    {
      "constant": false,
      "inputs": [
        {
          "internalType": "uint256",
          "name": "n",
          "type": "uint256"
        }
      ],
      "name": "decrement",
      "outputs": [],
      "payable": false,
      "stateMutability": "nonpayable",
      "type": "function"
    }
  ],
  "bytecode": "0x608060405234801561001057600080fd5b5061015d806100206000396000f3fe608060405234801561001057600080fd5b506004361061004c5760003560e01c80633a9ebefd1461005157806360fe47b11461007f5780636d4ce63c146100ad5780637cf5dab0146100cb575b600080fd5b61007d6004803603602081101561006757600080fd5b81019080803590602001909291905050506100f9565b005b6100ab6004803603602081101561009557600080fd5b8101908080359060200190929190505050610107565b005b6100b5610111565b6040518082815260200191505060405180910390f35b6100f7600480360360208110156100e157600080fd5b810190808035906020019092919050505061011a565b005b806000540360008190555050565b8060008190555050565b60008054905090565b80600054016000819055505056fea265627a7a72315820e8ba2f9f74b9fa08ee4ba63d4c81d7cd218a0b7801f7231fd0861cd5fdf8accb64736f6c63430005100032",
  "source": "// SPDX-License-Identifier: MIT\r\npragma solidity >=0.4.22 <0.8.0;\r\n\r\ncontract Simplestorage{\r\n    uint256 storedData;\r\n    \r\n    function set(uint x) public{\r\n        storedData = x;\r\n    }\r\n    function get() public view returns (uint){\r\n        return storedData;\r\n    }\r\n    function increment(uint n) public{\r\n        storedData = storedData + n;\r\n        return;\r\n    }\r\n    \r\n    function decrement(uint n) public{\r\n        storedData = storedData - n;\r\n        return ;\r\n    }\r\n    \r\n}",
  "sourcePath": "C:/Users/91997/Documents/WEb projects/blockchain/simple/contracts/Simple.sol",
  "compiler": {
    "name": "solc",
    "version": "0.5.16+commit.9c3226ce.Emscripten.clang"
  },
  "schemaVersion": "3.3.2",
  "updatedAt": "2020-11-24T22:44:00.823Z",
  "devdoc": {
    "methods": {}
  },
  "userdoc": {
    "methods": {}
  }
}